{
  "contractName": "XINFINXListing",
  "abi": [
    {
      "constant": true,
      "inputs": [],
      "name": "tokens",
      "outputs": [
        {
          "name": "",
          "type": "address[]"
        }
      ],
      "payable": false,
      "stateMutability": "view",
      "type": "function"
    },
    {
      "constant": true,
      "inputs": [
        {
          "name": "token",
          "type": "address"
        }
      ],
      "name": "getTokenStatus",
      "outputs": [
        {
          "name": "",
          "type": "bool"
        }
      ],
      "payable": false,
      "stateMutability": "view",
      "type": "function"
    },
    {
      "constant": false,
      "inputs": [
        {
          "name": "token",
          "type": "address"
        }
      ],
      "name": "apply",
      "outputs": [],
      "payable": true,
      "stateMutability": "payable",
      "type": "function"
    }
  ],
  "bytecode": "0x608060405234801561001057600080fd5b50610403806100206000396000f300608060405260043610610057576000357c0100000000000000000000000000000000000000000000000000000000900463ffffffff1680639d63848a1461005c578063a3ff31b5146100c8578063c6b32f3414610123575b600080fd5b34801561006857600080fd5b50610071610159565b6040518080602001828103825283818151815260200191508051906020019060200280838360005b838110156100b4578082015181840152602081019050610099565b505050509050019250505060405180910390f35b3480156100d457600080fd5b50610109600480360381019080803573ffffffffffffffffffffffffffffffffffffffff1690602001909291905050506101e7565b604051808215151515815260200191505060405180910390f35b610157600480360381019080803573ffffffffffffffffffffffffffffffffffffffff169060200190929190505050610240565b005b606060008054806020026020016040519081016040528092919081815260200182805480156101dd57602002820191906000526020600020905b8160009054906101000a900473ffffffffffffffffffffffffffffffffffffffff1673ffffffffffffffffffffffffffffffffffffffff1681526020019060010190808311610193575b5050505050905090565b6000600160008373ffffffffffffffffffffffffffffffffffffffff1673ffffffffffffffffffffffffffffffffffffffff16815260200190815260200160002060000160009054906101000a900460ff169050919050565b80600073ffffffffffffffffffffffffffffffffffffffff168173ffffffffffffffffffffffffffffffffffffffff161415151561027d57600080fd5b60011515600160008373ffffffffffffffffffffffffffffffffffffffff1673ffffffffffffffffffffffffffffffffffffffff16815260200190815260200160002060000160009054906101000a900460ff161515141515156102e057600080fd5b68056bc75e2d6310000034101515156102f857600080fd5b60008290806001815401808255809150509060018203906000526020600020016000909192909190916101000a81548173ffffffffffffffffffffffffffffffffffffffff021916908373ffffffffffffffffffffffffffffffffffffffff1602179055505060206040519081016040528060011515815250600160008473ffffffffffffffffffffffffffffffffffffffff1673ffffffffffffffffffffffffffffffffffffffff16815260200190815260200160002060008201518160000160006101000a81548160ff02191690831515021790555090505050505600a165627a7a72305820ddf54374c355e906fe4280e060793152fb5c4727a560c4f522f962e7728b08de0029",
  "source": "pragma solidity ^0.4.24;\n\ncontract XINFINXListing {\n\n    address[] _tokens;\n    mapping(address => TokenState) tokensState;\n\n\n    struct TokenState {\n        bool isActive;\n    }\n\n    modifier onlyValidApplyNewToken(address token){\n        require(token != address(0));\n        require(tokensState[token].isActive != true);\n        _;\n    }\n\n    function tokens() public view returns(address[]) {\n        return _tokens;\n    }\n\n    function getTokenStatus(address token) public view returns(bool) {\n        return tokensState[token].isActive;\n    }\n\n    function apply(address token) public payable onlyValidApplyNewToken(token){\n        require(msg.value >= 100 ether);\n        _tokens.push(token);\n        tokensState[token] = TokenState({\n            isActive: true\n        });\n    }\n}\n",
  "sourcePath": "/home/anil/github/anilchinchawale/sCoin/contracts/XINFINXListing.sol",
  "compiler": {
    "name": "solc",
    "version": "0.4.24+commit.e67f0147.Emscripten.clang"
  },
  "schemaVersion": "2.0.0",
  "updatedAt": "2019-11-25T19:25:58.564Z"
}