{
  "contractName": "XRC21Issuer",
  "abi": [
    {
      "inputs": [
        {
          "name": "value",
          "type": "uint256"
        }
      ],
      "payable": false,
      "stateMutability": "nonpayable",
      "type": "constructor"
    },
    {
      "anonymous": false,
      "inputs": [
        {
          "indexed": true,
          "name": "issuer",
          "type": "address"
        },
        {
          "indexed": true,
          "name": "token",
          "type": "address"
        },
        {
          "indexed": false,
          "name": "value",
          "type": "uint256"
        }
      ],
      "name": "Apply",
      "type": "event"
    },
    {
      "anonymous": false,
      "inputs": [
        {
          "indexed": true,
          "name": "supporter",
          "type": "address"
        },
        {
          "indexed": true,
          "name": "token",
          "type": "address"
        },
        {
          "indexed": false,
          "name": "value",
          "type": "uint256"
        }
      ],
      "name": "Charge",
      "type": "event"
    },
    {
      "constant": true,
      "inputs": [],
      "name": "minCap",
      "outputs": [
        {
          "name": "",
          "type": "uint256"
        }
      ],
      "payable": false,
      "stateMutability": "view",
      "type": "function"
    },
    {
      "constant": true,
      "inputs": [],
      "name": "tokens",
      "outputs": [
        {
          "name": "",
          "type": "address[]"
        }
      ],
      "payable": false,
      "stateMutability": "view",
      "type": "function"
    },
    {
      "constant": true,
      "inputs": [
        {
          "name": "token",
          "type": "address"
        }
      ],
      "name": "getTokenCapacity",
      "outputs": [
        {
          "name": "",
          "type": "uint256"
        }
      ],
      "payable": false,
      "stateMutability": "view",
      "type": "function"
    },
    {
      "constant": false,
      "inputs": [
        {
          "name": "token",
          "type": "address"
        }
      ],
      "name": "apply",
      "outputs": [],
      "payable": true,
      "stateMutability": "payable",
      "type": "function"
    },
    {
      "constant": false,
      "inputs": [
        {
          "name": "token",
          "type": "address"
        }
      ],
      "name": "charge",
      "outputs": [],
      "payable": true,
      "stateMutability": "payable",
      "type": "function"
    }
  ],
  "bytecode": "0x608060405234801561001057600080fd5b506040516020806106d08339810180604052810190808051906020019092919050505080600081905550506106868061004a6000396000f30060806040526004361061006d576000357c0100000000000000000000000000000000000000000000000000000000900463ffffffff1680633fa615b0146100725780638f3a981c1461009d5780639d63848a146100f4578063c6b32f3414610160578063fc6bd76a14610196575b600080fd5b34801561007e57600080fd5b506100876101cc565b6040518082815260200191505060405180910390f35b3480156100a957600080fd5b506100de600480360381019080803573ffffffffffffffffffffffffffffffffffffffff1690602001909291905050506101d5565b6040518082815260200191505060405180910390f35b34801561010057600080fd5b5061010961021e565b6040518080602001828103825283818151815260200191508051906020019060200280838360005b8381101561014c578082015181840152602081019050610131565b505050509050019250505060405180910390f35b610194600480360381019080803573ffffffffffffffffffffffffffffffffffffffff1690602001909291905050506102ac565b005b6101ca600480360381019080803573ffffffffffffffffffffffffffffffffffffffff16906020019092919050505061053c565b005b60008054905090565b6000600260008373ffffffffffffffffffffffffffffffffffffffff1673ffffffffffffffffffffffffffffffffffffffff168152602001908152602001600020549050919050565b606060018054806020026020016040519081016040528092919081815260200182805480156102a257602002820191906000526020600020905b8160009054906101000a900473ffffffffffffffffffffffffffffffffffffffff1673ffffffffffffffffffffffffffffffffffffffff1681526020019060010190808311610258575b5050505050905090565b600081600073ffffffffffffffffffffffffffffffffffffffff168173ffffffffffffffffffffffffffffffffffffffff16141515156102eb57600080fd5b60005434101515156102fc57600080fd5b8291503373ffffffffffffffffffffffffffffffffffffffff168273ffffffffffffffffffffffffffffffffffffffff16631d1438486040518163ffffffff167c0100000000000000000000000000000000000000000000000000000000028152600401602060405180830381600087803b15801561037a57600080fd5b505af115801561038e573d6000803e3d6000fd5b505050506040513d60208110156103a457600080fd5b810190808051906020019092919050505073ffffffffffffffffffffffffffffffffffffffff161415156103d757600080fd5b60018390806001815401808255809150509060018203906000526020600020016000909192909190916101000a81548173ffffffffffffffffffffffffffffffffffffffff021916908373ffffffffffffffffffffffffffffffffffffffff1602179055505061048f34600260008673ffffffffffffffffffffffffffffffffffffffff1673ffffffffffffffffffffffffffffffffffffffff1681526020019081526020016000205461063990919063ffffffff16565b600260008573ffffffffffffffffffffffffffffffffffffffff1673ffffffffffffffffffffffffffffffffffffffff168152602001908152602001600020819055508273ffffffffffffffffffffffffffffffffffffffff163373ffffffffffffffffffffffffffffffffffffffff167f2d485624158277d5113a56388c3abf5c20e3511dd112123ba376d16b21e4d716346040518082815260200191505060405180910390a3505050565b61058e34600260008473ffffffffffffffffffffffffffffffffffffffff1673ffffffffffffffffffffffffffffffffffffffff1681526020019081526020016000205461063990919063ffffffff16565b600260008373ffffffffffffffffffffffffffffffffffffffff1673ffffffffffffffffffffffffffffffffffffffff168152602001908152602001600020819055508073ffffffffffffffffffffffffffffffffffffffff163373ffffffffffffffffffffffffffffffffffffffff167f5cffac866325fd9b2a8ea8df2f110a0058313b279402d15ae28dd324a2282e06346040518082815260200191505060405180910390a350565b600080828401905083811015151561065057600080fd5b80915050929150505600a165627a7a723058209186c31dfd7e185a22c04def3f8cbcbce3117a0166a337d5125211df79bc74010029",
  "source": "pragma solidity ^0.4.24;\n\nlibrary SafeMath {\n\n\t/**\n\t * @dev Multiplies two numbers, reverts on overflow.\n\t */\n\tfunction mul(uint256 a, uint256 b) internal pure returns (uint256) {\n\t\t// Gas optimization: this is cheaper than requiring 'a' not being zero, but the\n\t\t// benefit is lost if 'b' is also tested.\n\t\t// See: https://github.com/OpenZeppelin/openzeppelin-solidity/pull/522\n\t\tif (a == 0) {\n\t\t\treturn 0;\n\t\t}\n\n\t\tuint256 c = a * b;\n\t\trequire(c / a == b);\n\n\t\treturn c;\n\t}\n\n\t/**\n\t * @dev Integer division of two numbers truncating the quotient, reverts on division by zero.\n\t */\n\tfunction div(uint256 a, uint256 b) internal pure returns (uint256) {\n\t\trequire(b > 0); // Solidity only automatically asserts when dividing by 0\n\t\tuint256 c = a / b;\n\t\t// assert(a == b * c + a % b); // There is no case in which this doesn't hold\n\n\t\treturn c;\n\t}\n\n    /**\n     * @dev Subtracts two numbers, reverts on overflow (i.e. if subtrahend is greater than minuend).\n     */\n    function sub(uint256 a, uint256 b) internal pure returns (uint256) {\n        require(b <= a);\n        uint256 c = a - b;\n\n        return c;\n    }\n\n    /**\n     * @dev Adds two numbers, reverts on overflow.\n     */\n    function add(uint256 a, uint256 b) internal pure returns (uint256) {\n        uint256 c = a + b;\n        require(c >= a);\n\n        return c;\n    }\n\n    /**\n     * @dev Divides two numbers and returns the remainder (unsigned integer modulo),\n     * reverts when dividing by zero.\n     */\n    function mod(uint256 a, uint256 b) internal pure returns (uint256) {\n        require(b != 0);\n        return a % b;\n    }\n}\n\ncontract AbstractTokenXRC21 {\n    function issuer() public view returns (address);\n}\n\ncontract XRC21Issuer {\n    using SafeMath for uint256;\n    uint256 _minCap;\n    address[] _tokens;\n    mapping(address => uint256) tokensState;\n\n\tevent Apply(address indexed issuer, address indexed token, uint256 value);\n\tevent Charge(address indexed supporter, address indexed token, uint256 value);\n\n    constructor (uint256 value) public {\n        _minCap = value;\n    }\n\n    function minCap() public view returns(uint256) {\n        return _minCap;\n    }\n\n    function tokens() public view returns(address[]) {\n        return _tokens;\n    }\n\n    function getTokenCapacity(address token) public view returns(uint256) {\n        return tokensState[token];\n    }\n\n    modifier onlyValidCapacity(address token) {\n        require(token != address(0));\n        require(msg.value >= _minCap);\n        _;\n    }\n\n    function apply(address token) public payable onlyValidCapacity(token) {\n        AbstractTokenXRC21 t = AbstractTokenXRC21(token);\n        require(t.issuer() == msg.sender);\n        _tokens.push(token);\n        tokensState[token] = tokensState[token].add(msg.value);\n        emit Apply(msg.sender, token, msg.value);\n    }\n\n    function charge(address token) public payable {\n        tokensState[token] = tokensState[token].add(msg.value);\n        emit Charge(msg.sender, token, msg.value);\n    }\n\n}\n",
  "sourcePath": "/home/anil/github/anilchinchawale/sCoin/contracts/XRC21Issuer.sol",
  "compiler": {
    "name": "solc",
    "version": "0.4.24+commit.e67f0147.Emscripten.clang"
  },
  "schemaVersion": "2.0.0",
  "updatedAt": "2019-11-25T19:25:58.576Z"
}